{
  "_format": "hh-sol-artifact-1",
  "contractName": "AIDecisionRegistry",
  "sourceName": "contracts/AIDecisionRegistry.sol",
  "abi": [
    {
      "anonymous": false,
      "inputs": [
        {
          "indexed": true,
          "internalType": "string",
          "name": "decisionId",
          "type": "string"
        },
        {
          "indexed": true,
          "internalType": "bytes32",
          "name": "fingerprint",
          "type": "bytes32"
        },
        {
          "indexed": false,
          "internalType": "uint256",
          "name": "timestamp",
          "type": "uint256"
        },
        {
          "indexed": false,
          "internalType": "string",
          "name": "modelId",
          "type": "string"
        }
      ],
      "name": "DecisionRegistered",
      "type": "event"
    },
    {
      "anonymous": false,
      "inputs": [
        {
          "indexed": true,
          "internalType": "string",
          "name": "decisionId",
          "type": "string"
        },
        {
          "indexed": false,
          "internalType": "bool",
          "name": "isValid",
          "type": "bool"
        },
        {
          "indexed": false,
          "internalType": "bytes32",
          "name": "providedFingerprint",
          "type": "bytes32"
        }
      ],
      "name": "DecisionVerified",
      "type": "event"
    },
    {
      "inputs": [
        {
          "internalType": "string",
          "name": "",
          "type": "string"
        }
      ],
      "name": "decisions",
      "outputs": [
        {
          "internalType": "bytes32",
          "name": "fingerprint",
          "type": "bytes32"
        },
        {
          "internalType": "uint256",
          "name": "timestamp",
          "type": "uint256"
        },
        {
          "internalType": "string",
          "name": "modelId",
          "type": "string"
        },
        {
          "internalType": "bool",
          "name": "exists",
          "type": "bool"
        }
      ],
      "stateMutability": "view",
      "type": "function"
    },
    {
      "inputs": [
        {
          "internalType": "string",
          "name": "decisionId",
          "type": "string"
        }
      ],
      "name": "getDecision",
      "outputs": [
        {
          "internalType": "bytes32",
          "name": "fingerprint",
          "type": "bytes32"
        },
        {
          "internalType": "uint256",
          "name": "timestamp",
          "type": "uint256"
        },
        {
          "internalType": "string",
          "name": "modelId",
          "type": "string"
        },
        {
          "internalType": "bool",
          "name": "exists",
          "type": "bool"
        }
      ],
      "stateMutability": "view",
      "type": "function"
    },
    {
      "inputs": [
        {
          "internalType": "string",
          "name": "decisionId",
          "type": "string"
        },
        {
          "internalType": "bytes32",
          "name": "fingerprint",
          "type": "bytes32"
        },
        {
          "internalType": "string",
          "name": "modelId",
          "type": "string"
        }
      ],
      "name": "registerDecision",
      "outputs": [],
      "stateMutability": "nonpayable",
      "type": "function"
    },
    {
      "inputs": [
        {
          "internalType": "string",
          "name": "decisionId",
          "type": "string"
        },
        {
          "internalType": "bytes32",
          "name": "providedFingerprint",
          "type": "bytes32"
        }
      ],
      "name": "verifyDecision",
      "outputs": [
        {
          "internalType": "bool",
          "name": "isValid",
          "type": "bool"
        },
        {
          "internalType": "uint256",
          "name": "timestamp",
          "type": "uint256"
        }
      ],
      "stateMutability": "view",
      "type": "function"
    }
  ],
  "bytecode": "0x608060405234801561001057600080fd5b506108e8806100206000396000f3fe608060405234801561001057600080fd5b506004361061004c5760003560e01c80634313d5ab146100515780636e84cc611461007d5780637134fbee146100925780637d4f6050146100bc575b600080fd5b61006461005f3660046105c3565b6100cf565b6040516100749493929190610650565b60405180910390f35b61009061008b366004610682565b6101d8565b005b6100a56100a03660046106ef565b610322565b604080519215158352602083019190915201610074565b6100646100ca3660046105c3565b610461565b60008060606000806000866040516100e79190610734565b9081526020016040518091039020604051806080016040529081600082015481526020016001820154815260200160028201805461012490610750565b80601f016020809104026020016040519081016040528092919081815260200182805461015090610750565b801561019d5780601f106101725761010080835404028352916020019161019d565b820191906000526020600020905b81548152906001019060200180831161018057829003601f168201915b50505091835250506003919091015460ff16151560209182015281519082015160408301516060909301519199909850919650945092505050565b6000836040516101e89190610734565b9081526040519081900360200190206003015460ff16156102505760405162461bcd60e51b815260206004820152601b60248201527f4465636973696f6e20616c72656164792072656769737465726564000000000060448201526064015b60405180910390fd5b60408051608081018252838152426020820152808201839052600160608201529051600090610280908690610734565b90815260408051602092819003830190208351815591830151600183015582015160028201906102b090826107d9565b50606091909101516003909101805460ff191691151591909117905560405182906102dc908590610734565b60405180910390207fb611b6093bddab6910f24d86c731db187f16bdf66a710551de4289df00754b874284604051610315929190610899565b60405180910390a3505050565b600080600080856040516103369190610734565b9081526020016040518091039020604051806080016040529081600082015481526020016001820154815260200160028201805461037390610750565b80601f016020809104026020016040519081016040528092919081815260200182805461039f90610750565b80156103ec5780601f106103c1576101008083540402835291602001916103ec565b820191906000526020600020905b8154815290600101906020018083116103cf57829003601f168201915b50505091835250506003919091015460ff161515602090910152606081015190915061044f5760405162461bcd60e51b8152602060048201526012602482015271111958da5cda5bdb881b9bdd08199bdd5b9960721b6044820152606401610247565b80516020909101519314949293505050565b80516020818301810180516000825292820191909301209152805460018201546002830180549293919261049490610750565b80601f01602080910402602001604051908101604052809291908181526020018280546104c090610750565b801561050d5780601f106104e25761010080835404028352916020019161050d565b820191906000526020600020905b8154815290600101906020018083116104f057829003601f168201915b5050506003909301549192505060ff1684565b634e487b7160e01b600052604160045260246000fd5b600082601f83011261054757600080fd5b813567ffffffffffffffff8082111561056257610562610520565b604051601f8301601f19908116603f0116810190828211818310171561058a5761058a610520565b816040528381528660208588010111156105a357600080fd5b836020870160208301376000602085830101528094505050505092915050565b6000602082840312156105d557600080fd5b813567ffffffffffffffff8111156105ec57600080fd5b6105f884828501610536565b949350505050565b60005b8381101561061b578181015183820152602001610603565b50506000910152565b6000815180845261063c816020860160208601610600565b601f01601f19169290920160200192915050565b84815283602082015260806040820152600061066f6080830185610624565b9050821515606083015295945050505050565b60008060006060848603121561069757600080fd5b833567ffffffffffffffff808211156106af57600080fd5b6106bb87838801610536565b94506020860135935060408601359150808211156106d857600080fd5b506106e586828701610536565b9150509250925092565b6000806040838503121561070257600080fd5b823567ffffffffffffffff81111561071957600080fd5b61072585828601610536565b95602094909401359450505050565b60008251610746818460208701610600565b9190910192915050565b600181811c9082168061076457607f821691505b60208210810361078457634e487b7160e01b600052602260045260246000fd5b50919050565b601f8211156107d457600081815260208120601f850160051c810160208610156107b15750805b601f850160051c820191505b818110156107d0578281556001016107bd565b5050505b505050565b815167ffffffffffffffff8111156107f3576107f3610520565b610807816108018454610750565b8461078a565b602080601f83116001811461083c57600084156108245750858301515b600019600386901b1c1916600185901b1785556107d0565b600085815260208120601f198616915b8281101561086b5788860151825594840194600190910190840161084c565b50858210156108895787850151600019600388901b60f8161c191681555b5050505050600190811b01905550565b8281526040602082015260006105f8604083018461062456fea264697066735822122048357fc6ba38cb8578944ff249b8e9a01e2c8ca452f320c7f49fe3de1bf774af64736f6c63430008140033",
  "linkReferences": {},
  "deployedLinkReferences": {}
}